:0400000025EF16F0E2
:1010000000010000000A00000064000000E8030086
:101010000010270000A086010040420F0080969833
:101020000000E1F50500CA9A3B00803FCDCC3DD7DA
:10103000233C12833AB7D138C62737388635C0D615
:1010400033CC2B32708930E7DB2EE53C1E42A20DFB
:1010500000803F00204100C842007A44401C4650B6
:10106000C34724744997184BBCBE4C6B6E4E031596
:101070005079AD60F349714572726F72207265618B
:1010800064696E67207468652073656E736F722083
:101090000D0A0068756D693A252E32662074656DFB
:1010A000703A252E3266200D0A000000440E536E61
:1010B000000E546E5AD3250E6618D8B407D040C01F
:1010C000D9FF41C0DAFF66C0DFFF4DD3000E566E78
:1010D000000E556E42C0F6FF43C0F7FF0800F55002
:1010E0002E0AD8A42ED0568C424A432A000E626E95
:1010F000000E616E1BD061C00FF062C010F0000ED8
:10110000126E0A0E116EBBEC15F042C0F6FF43C022
:10111000F7FF0800F5500F26000E1022D00E0F2406
:10112000616EFF0E1020626E424A432A42C0F6FFF3
:1011300043C0F7FF0800F55002EC16F0D8A009D024
:10114000DAD7000E626E000E616E568802D05684A9
:1011500011D042C0F6FF43C0F7FF424A432A0800BD
:10116000F5CF66F06650000AD8B40BD3660AD8B43F
:10117000EED7FBD2070E5614D8B4BBD256A804D073
:10118000000E626E060E616E53C0D9FF54C0DAFFC6
:10119000DECF63F0DECF64F0DDCF65F0030E5326C3
:1011A000000E542265AE10D063C001F064C002F09E
:1011B00065C003F0CEEC15F001C063F002C064F02E
:1011C00003C065F0030E5512000E5C6E000E5B6EE0
:1011D000635064106510D8B483D0820E4A6EFF0E3F
:1011E0004B6E63C04CF064C04DF065C04EF066C0FD
:1011F0004FF0100E05D0D8904F324E324D324C3257
:10120000E82EF9D74C504A245B6E000E4B205C6EE2
:101210005B06D8A05C065BC00FF05CC010F0000E4F
:10122000126E030E116EBBEC15F00FC05BF010C018
:101230005CF05BC007F05CC008F0000E0A6E0A0E9E
:10124000096EABEC13F007C05BF008C05CF05CAE5D
:1012500003D05B06D8A05C065B500008C8EC0BF01E
:1012600024C05DF025C05EF026C05FF05DC015F0C3
:101270005EC016F05FC017F063C018F064C019F0CC
:1012800065C01AF0E6EC10F015C05DF016C05EF017
:1012900017C05FF05DC001F05EC002F05FC003F0F8
:1012A000000E046E800E056E3F0E066E63EC13F0AA
:1012B000D8B004D05B06D8A05C0612D05DC001F0A7
:1012C0005EC002F05FC003F0000E046E200E056EDB
:1012D000410E066E63EC13F0D8A002D05B4A5C2A84
:1012E00062BE06D062501BE10D0E615CD8B017D013
:1012F00063C02EF064C02FF065C030F06150C0ECC8
:101300000DF024C031F025C032F026C033F0E3ECFC
:101310000EF02EC063F02FC064F030C065F05CBEEC
:1013200006D05C501EE10A0E5B5CD8B01AD0635048
:1013300064106510D8B451D063C02BF064C02CF099
:1013400065C02DF060EC11F02B502C102D102E10DC
:10135000D8B45CBE42D05C5004E1020E5B5CD8A005
:101360003CD05DC001F05EC002F05FC003F0700EC3
:10137000046E890E056E400E066E63EC13F0D8B055
:1013800002D0F70E01D0F80E5B26FF0E5C225B50F8
:10139000C8EC0BF024C05DF025C05EF026C05FF005
:1013A00063C001F064C002F065C003F05DC004F0EA
:1013B0005EC005F05FC006F0B9EC0FF001C057F059
:1013C00002C058F003C059F004C05AF0000E636E1A
:1013D000000E646E000E656E32D063C02BF064C0E8
:1013E0002CF065C02DF060EC11F02BC057F02CC034
:1013F00058F02DC059F02EC05AF063C03AF064C0C6
:101400003BF065C03CF057C009F058C00AF059C025
:101410000BF05AC00CF0FDEC14F009C03DF00AC00E
:101420003EF00BC03FF02BEC15F03AC063F03BC030
:1014300064F03CC065F0000E5C6E000E5B6E010E49
:10144000666E0A0E6618D8B418D06650040D010EE8
:10145000F324F66E100EF420F76E0900F550575C79
:101460000900F55058580900F55059580900F55031
:101470005A58D8A002D0662AE4D7030E55144A6EF3
:10148000000E56144B6E4A504B10D8B451D040C089
:10149000D9FF41C0DAFF2D0E49D0404A412A48D039
:1014A00057C001F058C002F059C003F05AC004F010
:1014B0006650040D010EF324F66E100EF420F76E44
:1014C0000900F5CF05F00900F5CF06F00900F5CFCA
:1014D00007F00A00F5CF08F0EDEC13F001C05DF065
:1014E00002C05EF003C05FF004C060F05DC001F0B8
:1014F0005EC002F05FC003F060C004F00A0E056E2B
:10150000000E066E000E076E000E086E9AEC14F0C8
:1015100001C05DF002C05EF003C05FF004C060F087
:101520005D50300F40C0D9FF41C0DAFFDF6EB5D744
:1015300066066628D8B40CD0B3D740C0D9FF41C0E6
:10154000DAFF300EDF6E404A412A5B06D8A05C0607
:101550005CBE05D05C50F1E15B04D8B0EED762BE52
:1015600009D0625004E1090E615CD8A003D0080ED6
:10157000666E02D061C066F06650615E000E66BEA7
:10158000FF0E625A6650D8B408D040C0D9FF41C09F
:10159000DAFF2E0EDF6E404A412A6650C8EC0BF08F
:1015A00024C050F025C051F026C052F063C018F09E
:1015B00064C019F065C01AF050C015F051C016F0A3
:1015C00052C017F0E6EC10F015C02BF016C02CF04E
:1015D00017C02DF060EC11F02BC057F02CC058F064
:1015E0002DC059F02EC05AF06FD057C001F058C02E
:1015F00002F059C003F05AC004F06650040D010E09
:10160000F324F66E100EF420F76E0900F5CF05F006
:101610000900F5CF06F00900F5CF07F00A00F5CF75
:1016200008F0EDEC13F001C05DF002C05EF003C005
:101630005FF004C060F05DC001F05EC002F05FC00A
:1016400003F060C004F00A0E056E000E066E000E78
:10165000076E000E086E9AEC14F001C05DF002C037
:101660005EF003C05FF004C060F05D50300F40C01A
:10167000D9FF41C0DAFFDF6E404A412A57C001F06E
:1016800058C002F059C003F05AC004F06650040D6F
:10169000010EF324F66E100EF420F76E0900F5CF5C
:1016A00005F00900F5CF06F00900F5CF07F00A00B4
:1016B000F5CF08F09AEC14F001C057F002C058F0D2
:1016C00003C059F004C05AF066066628D8B40CD09E
:1016D0008CD740C0D9FF41C0DAFF300EDF6E404AE0
:1016E000412A6106D8A0620661506210D8B43DD08C
:1016F000F0D761506210D8A408D057505810591034
:101700005A10D8A402D0614A622A800E66BE7F0EAB
:101710004A6E6150665C6250800A4A58D8B003D065
:1017200061C066F010D06250800A4A6E6650615CFB
:10173000800E66BE7F0E4A58D8B005D06650616EE6
:10174000626A61BE6206030E55144A6E000E56149C
:101750004B6E4A504B10D8B408D040C0D9FF41C09E
:10176000DAFF2D0EDF6E404A412A42C0F6FF43C029
:10177000F7FF424A432A0800F5CF66F06650D8A426
:101780009AD440C0D9FF41C0DAFF000EDF6E1200CC
:101790002A6E2AAEFBD02A6C2A50800A120FD8A0DB
:1017A00091D0000E126E030E116E000E0A6E0A0E1C
:1017B000096E000E046E640E036E2A50016E026AFA
:1017C00001BE02062EEC14F001C007F002C008F0C2
:1017D000ABEC13F0090E07240F6E000E0820106EFC
:1017E000BBEC15F0290E0F24F66E100E1020F76ECC
:1017F0000900F5CF18F00900F5CF19F00A00F5CF70
:101800001AF0000E0A6E640E096E2A50076E086AFE
:1018100007BE0806ABEC13F0120E07240F6E000E85
:101820000820106E000E126E030E116EBBEC15F048
:10183000290E0F24F66E100E1020F76E0900F5CF5A
:1018400015F00900F5CF16F00A00F5CF17F0E6EC19
:1018500010F015C027F016C028F017C029F027C0D7
:1018600015F028C016F029C017F0000E126E030EF6
:10187000116E000E046E0A0E036E2A50016E026A8B
:1018800001BE02062EEC14F001C00FF002C010F0F1
:10189000BBEC15F0290E0F24F66E100E1020F76E1B
:1018A0000900F5CF18F00900F5CF19F00A00F5CFBF
:1018B0001AF0E6EC10F015C024F016C025F017C0A1
:1018C00026F012002A50800A750FD8A04DD0000EC5
:1018D0000A6E0A0E096E2A50076E086A07BE0806CD
:1018E000ABEC13F0090E07240F6E000E0820106EEB
:1018F000000E126E030E116EBBEC15F0290E0F24B4
:10190000F66E100E1020F76E0900F5CF15F00900E5
:10191000F5CF16F00A00F5CF17F0000E126E030E89
:10192000116E000E046E0A0E036E2A50016E026ADA
:1019300001BE02062EEC14F001C00FF002C010F040
:10194000BBEC15F0290E0F24F66E100E1020F76E6A
:101950000900F5CF18F00900F5CF19F00A00F5CF0E
:101960001AF0E6EC10F0A7D72A50030D290EF32445
:10197000F66E100EF420F76E0900F5CF24F0090082
:10198000F5CF25F00A00F5CF26F012002A50800A84
:10199000120FD8A091D0000E126E030E116E000E21
:1019A0000A6E0A0E096E000E046E640E036E2A5053
:1019B000016E026A01BE02062EEC14F001C007F0AF
:1019C00002C008F0ABEC13F0090E07240F6E000EF6
:1019D0000820106EBBEC15F0500E0F24F66E100EA2
:1019E0001020F76E0900F5CF18F00900F5CF19F0B7
:1019F0000A00F5CF1AF0000E0A6E640E096E2A5026
:101A0000076E086A07BE0806ABEC13F0120E072437
:101A10000F6E000E0820106E000E126E030E116E77
:101A2000BBEC15F0500E0F24F66E100E1020F76E62
:101A30000900F5CF15F00900F5CF16F00A00F5CF33
:101A400017F0E6EC10F015C027F016C028F017C00C
:101A500029F027C015F028C016F029C017F0000E95
:101A6000126E030E116E000E046E0A0E036E2A50E3
:101A7000016E026A01BE02062EEC14F001C00FF0E6
:101A800002C010F0BBEC15F0500E0F24F66E100ED5
:101A90001020F76E0900F5CF18F00900F5CF19F006
:101AA0000A00F5CF1AF0E6EC10F015C024F016C0CD
:101AB00025F017C026F012002A50800A750FD8A012
:101AC0004DD0000E0A6E0A0E096E2A50076E086A83
:101AD00007BE0806ABEC13F0090E07240F6E000ECC
:101AE0000820106E000E126E030E116EBBEC15F086
:101AF000500E0F24F66E100E1020F76E0900F5CF71
:101B000015F00900F5CF16F00A00F5CF17F0000E1A
:101B1000126E030E116E000E046E0A0E036E2A5032
:101B2000016E026A01BE02062EEC14F001C00FF035
:101B300002C010F0BBEC15F0500E0F24F66E100E24
:101B40001020F76E0900F5CF18F00900F5CF19F055
:101B50000A00F5CF1AF0E6EC10F0A7D72A50030DD3
:101B6000500EF324F66E100EF420F76E0900F5CF38
:101B700024F00900F5CF25F00A00F5CF26F0120079
:101B80002D6E6D0E2D649FD0000E126E030E116E21
:101B9000000E0A6E0A0E096E000E046E640E036ECD
:101BA0002DC001F0026A2EEC14F001C007F002C053
:101BB00008F0ABEC13F0090E07240F6E000E08209E
:101BC000106EBBEC15F0290E0F24F66E100E1020CF
:101BD000F76E0900F5CF18F00900F5CF19F00A00EB
:101BE000F5CF1AF0000E0A6E640E096E2DC007F0D4
:101BF000086AABEC13F0120E07240F6E000E0820DB
:101C0000106E000E126E030E116EBBEC15F0290E55
:101C10000F24F66E100E1020F76E0900F5CF15F0A8
:101C20000900F5CF16F00A00F5CF17F0E6EC10F03A
:101C300015C02AF016C02BF017C02CF0000E126E43
:101C4000030E116E000E046E0A0E036E2DC001F01D
:101C5000026A2EEC14F001C00FF002C010F0BBECD1
:101C600015F0290E0F24F66E100E1020F76E0900E5
:101C7000F5CF18F00900F5CF19F00A00F5CF1AF0EA
:101C80002AC015F02BC016F02CC017F0E6EC10F0AF
:101C900015C027F016C028F017C029F027C015F08E
:101CA00028C016F029C017F0000E186E000E196E2D
:101CB0003F0E1A6EE6EC10F015C024F016C025F0A9
:101CC00017C026F012000A0E2D645DD0000E126EB1
:101CD000030E116E000E046E0A0E036E2DC001F08D
:101CE000026A2EEC14F001C00FF002C010F0BBEC41
:101CF00015F0290E0F24F66E100E1020F76E090055
:101D0000F5CF18F00900F5CF19F00A00F5CF1AF059
:101D1000000E0A6E0A0E096E2DC007F0086AABECC1
:101D200013F0090E07240F6E000E0820106E000E2F
:101D3000126E030E116EBBEC15F0290E0F24F66E19
:101D4000100E1020F76E0900F5CF15F00900F5CF41
:101D500016F00A00F5CF17F0E6EC10F015C02AF0E7
:101D600016C02BF017C02CF02AC015F02BC016F0AF
:101D70002CC017F0000E186E000E196E3F0E1A6E72
:101D8000E6EC10F099D72D50030D290EF324F66ED2
:101D9000100EF420F76E0900F5CF15F00900F5CF0D
:101DA00016F00A00F5CF17F0000E186E000E196E2F
:101DB0003F0E1A6EE6EC10F015C024F016C025F0A8
:101DC00017C026F0120030C034F0356A366A2F345E
:101DD000343601E335803450396E33C034F0356A1F
:101DE000366A3234343601E335803450386E395037
:101DF000D8B40BD03850395CD8B00ED03950000868
:101E00003824346E180E346407D031C02EF032C03E
:101E10002FF033C030F012003850D8B40BD0395006
:101E2000385CD8B00ED0385000083924346E180E03
:101E3000346407D02EC02EF02FC02FF030C030F009
:101E40001200060E376E30BE378E33BE378C2F8EA3
:101E5000FF0E2E16FF0E2F16000E3016328EFF0EBE
:101E60003116FF0E3216000E33163850395CD8B0DA
:101E70001BD0D890313632363336380639503818C0
:101E8000D8B40DD0370637C034F0070E3416D8B4A6
:101E900006D0EFD7D89030322F322E32392A385030
:101EA0003918D8B41FD0F6D73950385CD8B01AD00A
:101EB000D8902E362F363036390639503818D8B4E7
:101EC0000DD0370637C034F0070E3416D8B406D01C
:101ED000EFD7D890333232323132382A385039186D
:101EE000D8A4F7D737AE0CD0FF0E2E1AFF0E2F1A3C
:101EF000FF0E301A010E2E26000E2F22000E302269
:101F000037AC0CD0FF0E311AFF0E321AFF0E331A07
:101F1000010E3126000E3222000E3322000E376EE3
:101F20002E5031262F5032223050332233AE0ED075
:101F3000FF0E311AFF0E321AFF0E331A010E312630
:101F4000000E3222000E3322010E376E31C001F036
:101F500032C002F033C003F039C004F037C005F0DE
:101F6000C0EC12F001C02EF002C02FF003C030F020
:101F7000120003C007F0086A096A0234073601E359
:101F8000088007500F6E0F50D8A409D0000E016EC4
:101F9000000E026E000E036E000E046E120006C0EC
:101FA00007F0086A096A0534073601E3088007501C
:101FB0000E6E0E50D8A409D0000E016E000E026EF7
:101FC000000E036E000E046E1200028EFF0E01164C
:101FD000FF0E0216000E0316058EFF0E0416FF0EEE
:101FE0000516000E0616000E0A6E000E0B6E000E91
:101FF0000C6E000E0D6E7F0E0F5E0E50980F0F5E72
:10200000180E0E6ED8900A360B360C360D3604506C
:10201000015C0550025806500358D8A007D0045060
:10202000015E0550025A0650035A0A80D8900136C4
:10203000023603360E2EE6D70FAE16D00F50800AAA
:10204000970FD8B009D0000E016E000E026E000E80
:10205000036E000E046E1200D8900D320C320B325B
:102060000A320F3EF9D715D0170E0F640FD0000EAD
:10207000016E000E026E000E036E000E046E120062
:10208000D8900A360B360C360D360F060F50D8A4F2
:10209000F7D70AC001F00BC002F00CC003F00DC06E
:1020A00004F01200033404340C6E0C50D8A409D090
:1020B000000E016E000E026E000E036E000E046E26
:1020C0001200063407340B6E0B50D8A409D0000E52
:1020D000016E000E026E000E036E000E046E120002
:1020E000038EFF0E0116FF0E0216FF0E0316000EE2
:1020F0000416068EFF0E0416FF0E0516FF0E0616BA
:10210000000E0716000E076E000E086E000E096E18
:10211000000E0A6E7F0E0C5E0B50A00F0C5E200EA0
:102120000B6ED8900736083609360A360450015C23
:10213000055002580650035807500458D8A009D03B
:102140000450015E0550025A0650035A0750045AC3
:102150000780D89001360236033604360B2EE1D7BD
:102160000CAE16D00C50800A9F0FD8B009D0000ECC
:10217000016E000E026E000E036E000E046E120061
:10218000D8900A320932083207320C3EF9D715D0FE
:102190001F0E0C640FD0000E016E000E026E000EBA
:1021A000036E000E046E1200D8900736083609360A
:1021B0000A360C060C50D8A4F7D707C001F008C0A7
:1021C00002F009C003F00AC004F0120017C01BF0AF
:1021D0001C6A1D6A16341B3601E31C801B501E6EE0
:1021E0001E50D8A407D0000E156E000E166E000EFD
:1021F000176E12001AC01BF01C6A1D6A19341B36B8
:1022000001E31C801B50236E2350D8A407D0000E7E
:10221000156E000E166E000E176E120023507B0F07
:102220001E2617C023F01A50231A800E2316168E6E
:10223000198EFF0E1816FF0E1916000E1A16000E34
:102240001F6E000E206E000E216E070E226E15A06E
:1022500006D018501F26195020221A502122D8903B
:10226000173216321532D890183619361A36222EF1
:10227000EED7090E226E15A006D018501F26195051
:1022800020221A502122D890173216321532D890B7
:10229000213220321F32222EEED71FC001F020C083
:1022A00002F021C003F01EC004F023C005F0C0EC12
:1022B00012F001C015F002C016F003C017F01200B2
:1022C0002DC02FF0306A316A2C342F3601E3308074
:1022D0002F50396E3950D8A409D0000E2B6E000E45
:1022E0002C6E000E2D6E000E2E6E1200170E2F6E2D
:1022F0002BC030F02CC031F02DC032F02F28336EBF
:1023000004D0D890323231323032332EFAD73050B6
:10231000346E2C8EFF0E2B16FF0E2C16000E2D1673
:102320002B50356E2C50366E2D50376E386A8E0E0F
:10233000395E39AE16D03950800A8F0FD8B009D027
:10234000000E2B6E000E2C6E000E2D6E000E2E6EEB
:102350001200D8903832373236323532393EF9D71A
:1023600015D0170E39640FD0000E2B6E000E2C6E98
:10237000000E2D6E000E2E6E1200D89035363636B9
:102380003736383639063950D8A4F7D73450D8B450
:1023900008D0381E371E361E356C000E3622372206
:1023A000382235C02BF036C02CF037C02DF038C0A5
:1023B0002EF01200F2EC15F0A4EC15F00009D8B4E0
:1023C00069D0000E276E000E266E27BE06D027505D
:1023D00010E1050E265CD8B00CD0210E2624D96E53
:1023E000000E2720DA6E66EC14F0DF6E264A272AEC
:1023F000ECD7225021C01EF01F6A1EC01FF01E6ABB
:102400001E10096E1F500A6E88EC15F009C00DF001
:102410000AC00EF00BC00FF0000E106E200E116EF1
:10242000410E126E4DEC12F020EE05F01C50D92634
:102430001D50DA220DC0DEFF0EC0DEFF0FC0DEFF32
:10244000245023C01EF01F6A1EC01FF01E6A1E10FB
:10245000096E1F500A6E88EC15F009C00DF00AC015
:102460000EF00BC00FF0000E106E200E116E410E1C
:10247000126E4DEC12F020EE02F01C50D9261D50C9
:10248000DA220DC0DEFF0EC0DEFF0FC0DEFF010E40
:10249000206E1200000E206E12000FC013F0146A9E
:1024A000156A0E34133601E3148013501A6E1A5055
:1024B000D8A407D0000E0D6E000E0E6E000E0F6E2B
:1024C000120012C013F0146A156A1134133601E3B6
:1024D000148013501B6E1B50D8A407D0000E0D6E35
:1024E000000E0E6E000E0F6E1200000E176E000E24
:1024F000186E000E196E1B50890F1A5E0FC01BF06C
:1025000012501B1A800E1B160E8EFF0E0D16FF0E9C
:102510000E16000E0F16118EFF0E1016FF0E11165E
:10252000000E1216180E166ED89017361836193679
:1025300010500D5C11500E5812500F58D8A007D0F3
:1025400010500D5E11500E5A12500F5A1780D8902D
:102550000D360E360F36162EE7D717C001F018C00D
:1025600002F019C003F01AC004F01BC005F0C0EC63
:1025700012F001C00DF002C00EF003C00FF0120007
:102580000450D8B405D0015002100310D8A40CD0C8
:10259000000E016E000E026E000E036E1200042A81
:1025A000D890033202320132000E0114066E000E82
:1025B0000214076EFE0E0314086E06500710081072
:1025C000D8B40CD0ECD7042A010E0126000E02224A
:1025D000000E0322D890033202320132000E0114A1
:1025E000066E000E0214076EFF0E0314086E0650EE
:1025F00007100810D8B406D0E6D70406D8900136E4
:102600000236033602BE03D0020E0460F6D704A0E1
:10261000029ED8900432045003120550D8A4038EB1
:1026200001C001F002C002F003C003F01200E0ECB0
:1026300015F083A003D0676A672A01D0676A6750E4
:102640000101806F816B040E806EC80E11EC16F0D4
:10265000800E1C6E010E1D6EDAEC11F00009D8B46C
:1026600017D0000E406E010E416E930E426E100E9A
:10267000436E85C144F086C145F087C146F082C1F2
:1026800047F083C148F084C149F056EC08F00AD005
:10269000000E406E010E416E770E426E100E436EBC
:1026A00056EC08F0000E076E010E086E000E016E6B
:1026B000010E026E6BEC15F00150096E4BEC15F03B
:1026C000050E806EC0D703AE16D001C007F002C061
:1026D00008F003C009F0071E081E091E072A000E95
:1026E00008220922000E0724016E000E0820026E47
:1026F000800E0920036E06AE16D004C007F005C098
:1027000008F006C009F0071E081E091E072A000E61
:1027100008220922000E0724046E000E0820056E10
:10272000800E0920066E000E011A000E021A800E9D
:10273000031A000E041A000E051A800E061A045021
:10274000015C0550025806500358D8B002D0D8900A
:102750001200D8801200000E0C6E0AAE06D0096C72
:102760000A1ED8B00A2A010E0C6E08AE06D0076CFD
:10277000081ED8B0082A010E0C1A000E0E6E000EAC
:102780000D6E09500A10D8B41CD0010E0B6E04D087
:10279000D89009360A360B2A0AAEFAD7D8900D36E9
:1027A0000E360950075C0A500858D8A005D00950C9
:1027B000075E0A50085A0D80D8900A3209320B2E53
:1027C000EDD70C50D8B404D00D6C0E1ED8B00E2A24
:1027D0000DC007F00EC008F01200000E096E000ECA
:1027E0000A6E000E0B6E000E0C6E055006100710E0
:1027F0000810D8B42AD0010E0D6E06D0D890053638
:102800000636073608360D2A08AEF8D7D8900936AE
:102810000A360B360C360550015C0650025807503C
:10282000035808500458D8A009D00550015E06503E
:10283000025A0750035A0850045A0980D8900832A7
:102840000732063205320D2EE1D709C001F00AC069
:1028500002F00BC003F00CC004F01200000E066E74
:1028600002AE06D0016C021ED8B0022A010E066E1E
:1028700004AE04D0036C041ED8B0042A0350041024
:10288000D8B418D0010E056E04D0D89003360436A3
:10289000052A04AEFAD70350015C04500258D8A0B0
:1028A00004D00350015E0450025AD890043203321F
:1028B000052EF1D70650D8B404D0016C021ED8B052
:1028C000022A01C001F002C002F01200000E046EE4
:1028D000070E046401D02CD083A0FED71A0EE82E78
:1028E000FED700D083B011D004500008016E070E4F
:1028F0000126010E026E012A02D0D8900236012E66
:10290000FCD70250FF0A03160FD004500008016ED6
:10291000070E0126010E026E012A02D0D89002365F
:10292000012EFCD70250031283B0FED7042AD0D761
:10293000035012000550061007100810D8B424D018
:10294000010E096E06D0D8900536063607360836D1
:10295000092A08AEF8D70550015C06500258075006
:10296000035808500458D8A008D00550015E0650FE
:10297000025A0750035A0850045AD89008320732B6
:1029800006320532092EE7D701C001F002C002F07D
:1029900003C003F004C004F01200036E000EAC6E1E
:1029A000000EAB6E03B0AC8803A202D0AC8CAB8C33
:1029B00003B4AC8E03A602D0AB8801D0AB8A03B8B7
:1029C000AC849E9803BAAB8603AC02D09D8A01D03A
:1029D0009D9A9E9A03AE02D09D8801D09D9801C019
:1029E000AFFF0250B06EAC8AAB8E949C948EACA8B4
:1029F0001200ACBE1200948C12008E0E116E06D026
:102A0000D8900C320B320A320932112A000E091406
:102A10000D6E000E0A140E6E000E0B140F6EFF0EDC
:102A20000C14106E0D500E100F101010D8A4E8D713
:102A300009C001F00AC002F00BC003F011C004F09D
:102A4000000E056EC0EC12F001C009F002C00AF0E1
:102A500003C00BF012003D503E103F10D8B406D01A
:102A6000000E3D1A000E3E1A800E3F1A3AC02EF09C
:102A70003BC02FF03CC030F03DC031F03EC032F0E2
:102A80003FC033F0E3EC0EF02EC03AF02FC03BF025
:102A900030C03CF01200000E0E6E000E0D6E0DD018
:102AA000ACA2FED70D500724D96E0E500820DA6E66
:102AB000DF501CEC16F00D4A0E2A09500A6E0B6A04
:102AC0000A500D5C0E50800A0C6E0B50800A0C5898
:102AD000D8B01200E5D701C005F002C006F002D060
:102AE000054A062A05C0D9FF06C0DAFFDF50D8A480
:102AF000F7D701C003F002C004F0031E041E034A0E
:102B0000042A05500324016E06500420026E1200B0
:102B1000000E0C6E0AAE06D0096C0A1ED8B00A2A46
:102B2000010E0C6E09C001F00AC002F0036A8E0E9D
:102B3000046E0CC005F0C0EC12F001C009F002C038
:102B40000AF003C00BF012009580000E016E1A0E01
:102B5000E82EFED700D083B00AD0350EE82EFED77F
:102B600000F083A003D0010E016E01D0016883B094
:102B7000FED7015012000F501102F3CF13F0F4CF23
:102B800014F00F501202F350142610501102F3509B
:102B9000142613C00FF014C010F0120001500210E0
:102BA0000310D8B406D0000E011A000E021A800ECF
:102BB000031A01C001F002C002F003C003F01200CA
:102BC000720ED36E040E806EF80E926E1C0EC26EE4
:102BD000000E026E190E016E3C0ECDEC14F0000ECC
:102BE000956E120095908390410E016EEE0EE82EC8
:102BF000FED7012EFCD700D08380140EE82EFED71E
:102C000095801200036E000E026E3A0E036005D02E
:102C10002F0E036402D0010E026E02C001F00130DB
:102C20001200026E0D0E016EFC0EE82EFED7012E74
:102C3000FCD7022EF7D71200016EACAC03D0AC90DB
:102C400068B2AC8001C0ADFF1200686A000EF86E79
:062C5000000117EF13F074
:020000040020DA
:08000000FFFFFFFFFFFFFFFF00
:020000040030CA
:0E000000FF021F1EFF8381FF0FC00FE00F40A5
:00000001FF
